:020000041000EA
:1000000000001020C9C6021005C7021007C7021061
:1000100009C702100BC702100DC702100000000034
:100020000000000000000000000000000FC70210E8
:1000300011C702100000000013C70210A17E0010BB
:1000400017C7021019C70210E98F00108D8F00101A
:100050001FC70210A58D0010B98D0010CD8D0010A6
:1000600027C7021029C702102BC702102DC7021084
:100070002FC702106D840010698D00107D8D001057
:1000800037C7021039C702103BC702103DC7021024
:100090003FC7021041C7021043C7021045C70210F4
:1000A000FF8300100D8400101B8400104DC7021048
:1000B000AD8E0010BB8E0010C98E0010D78E0010C0
:1000C00057C7021059C70210918D00105DC702106A
:1000D0008184001061C7021063C7021065C7021057
:1000E00067C7021069C702106BC702106DC7021004
:1000F0006FC7021071C7021073C7021075C70210D4
:1001000077C7021079C702107BC702107DC70210A3
:100110007FC7021081C7021083C7021085C7021073
:1001200087C7021089C70210298400108DC70210EA
:100130008FC7021091C7021093C7021095C7021013
:1001400097C7021099C702109BC702109DC70210E3
:10015000E58E0010F38E0010018F00100F8F00103D
:100160001D8F00102B8F0010398F0010478F00104B
:10017000558F0010638F0010718F00107F8F00105B
:10018000B7C702100348044B834202D0034B03B1AC
:1001900018477047EC130020EC130020000000000B
:1001A000054806490B1AD90F01EBA301491002D0EB
:1001B000034B03B118477047EC130020EC130020E9
:1001C0000000000010B5064C237843B9FFF7DAFFB2
:1001D000044B13B10448AFF300800123237010BD1A
:1001E0000014002000000000C8DC041008B5044B17
:1001F0001BB104490448AFF30080BDE80840CFE7D5
:100200000000000004140020C8DC041080B584B095
:1002100000AF7860124B1B68002B02D1104B114AC3
:100220001A600F4B1B68FB600D4B1A687B68134408
:100230001A460D4B9A4207D92CF096FC03460C2225
:100240001A604FF0FF3306E0054B1A687B681344D1
:10025000034A1360FB6818461037BD4680BD00BFD7
:100260001C140020B83B022000F00F2080B400AF27
:100270006FF010031846BD465DF8047B704780B4EC
:1002800000AF6FF010031846BD465DF8047B704761
:1002900080B485B000AF4FF080439B6803F4606387
:1002A000BB60BB68B3F5806F02D11A4BFB601EE0E8
:1002B000BB68B3F5C06F03D14FF4FA53FB6016E08F
:1002C000BB68B3F5006F02D1134BFB600FE0BB6856
:1002D000B3F5206F02D1114BFB6008E0104B1B7887
:1002E000A12B02D90F4BFB6001E00F4BFB604FF0DD
:1002F00080439B689B0903F007037B60FA687B6877
:1003000022FA03F3094A136000BF1437BD465DF8B3
:10031000047B704700366E01000E270700127A003A
:100320002414002080F0FA02005A620220140020F7
:1003300080B400AF4FF080431B6823F440334FF08C
:10034000804243F40033136000231846BD465DF835
:10035000047B704780B500AF03F0B7FE03461A4632
:10036000554B1A70554B564A9A6062B600BF534BB4
:10037000D3F88830514A43F47003C2F88830BFF391
:100380004F8F00BFBFF36F8F00BF042003F04CFD01
:10039000FFF77EFF4FF080431B684FF0804243F42D
:1003A00000331360474B0122C3F8002700BF454BC1
:1003B000D3F8003103F48033002BF8D0414BD3F84D
:1003C0000031404A43F00103C2F8003100BF3D4B09
:1003D000D3F8003103F48033002BF8D0032003F06E
:1003E000CBFC042003F0C8FC052003F0C5FC06206C
:1003F00003F0C2FC072003F0BFFC082003F0BCFCA4
:10040000092003F0B9FC0A2003F0B6FC0D2003F02C
:10041000B3FC0E2003F0B0FC0F2003F0ADFC102065
:1004200003F0AAFC112003F0A7FC122003F0A4FCA7
:10043000132003F0A1FC142003F09EFC172003F00E
:100440009BFC1C2003F098FC1D2003F095FC1E2053
:1004500003F092FC1F2003F08FFC212003F08CFCA2
:10046000222003F089FC232003F086FC242003F0E3
:1004700083FC272003F080FC282003F07DFC29204A
:1004800003F07AFC2A2003F077FC2B2003F074FCA5
:100490002C2003F071FC2D2003F06EFC2E2003F0C5
:1004A0006BFC2F2003F068FC342003F065FC08F09F
:1004B00081FA00BF80BD00BF2414002000ED00E0E1
:1004C0000000001000A0024080B500AF014800F01D
:1004D0000FF880BD0080024080B582B000AF786028
:1004E000786800F021F8034618460837BD4680BDFD
:1004F00080B485B000AF78607B68094A934201D12F
:10050000002301E04FF0FF33FB60064AFB68002147
:1005100042F8231000BF1437BD465DF8047B7047D6
:10052000008002402814002080B582B000AF7860BF
:100530007B68002B43DB7B680F2B40DC23497A6808
:1005400013469B0013449B000B441B68002B36D0C2
:1005500001211F4803F084FB0346002B02D06FF0FB
:1005600005032EE019497A6813469B0013449B004B
:100570000B4400221A6015497A6813469B00134405
:100580009B000B440C331B6800221A600F497A68E9
:1005900013469B0013449B000B440C3319680B4813
:1005A0007A6813469B0013449B0003440C331B687A
:1005B0004A685A60064803F07AFB002301E06FF0B6
:1005C000020318460837BD4680BD00BF2C1400202A
:1005D0006C15002080B500AF024803F0BBF900BFE6
:1005E00080BD00BF0030034080B500AF024803F07B
:1005F000C3F900BF80BD00BF0030034080B500AF2D
:1006000001F0ACFF00BF80BD80B483B000AF786064
:1006100039607B68B3F1805F0BD37B68124A9342E9
:1006200007D87B6823F07F4323F450033A681360B4
:1006300012E07B68B3F1845F0BD37B680B4A934273
:1006400007D27B68C3F30D0303F500023B681A6011
:1006500002E06FF0020300E0002318460C37BD46AD
:100660005DF8047B704700BFFFFF2F100040801033
:1006700080B584B000AFF860B9607A60FB68B3F110
:10068000805F09D3FB68064A934205D87A68B96847
:10069000F8684DF00DFB00E000BF1037BD4680BD8F
:1006A000FFFF2F1080B586B000AF786039607B689F
:1006B00023F00F037B6107F10C0319467869FFF7FC
:1006C000A3FF38613B69002B01D03B6909E0FB685F
:1006D0003A68796805484DF0F3FA3861FFF78EFF04
:1006E0003B6918461837BD4680BD00BF00900240E8
:1006F00080B582B000AF7860786800F025F80346D6
:1007000018460837BD4680BD80B582B000AF78601E
:100710007968044800F038F8034618460837BD46A3
:1007200080BD00BF0090024080B582B000AF78600D
:100730007968044800F054F8034618460837BD4667
:1007400080BD00BF0090024080B483B000AF7860ED
:100750007B6803F440737B607B68002B02D16FF0F1
:10076000020308E0074B1B68596A064B1B687A684E
:100770000A435A62002318460C37BD465DF8047BD5
:10078000704700BF0000002080B483B000AF7860E5
:1007900039603B68B3F1845F03D33B680C4A9342F2
:1007A00002D96FF002030DE07B6841F234221A6433
:1007B0007B68084A1A647B68074A1A647B68074AA0
:1007C0001A64002318460C37BD465DF8047B704759
:1007D000FF7F8010A35C7F3A204FE3A1C1B208964F
:1007E00080B483B000AF786039603B68B3F1845F58
:1007F00003D33B68074A934202D96FF0020303E038
:100800007B68054A1A64002318460C37BD465DF81C
:10081000047B7047FF7F8010EFBEADDE80B485B0F3
:1008200000AF7860134B1B78002B1CD10023FB60BA
:1008300013E00023BB600AE00F49FB685A01BB6864
:100840001344002241F82320BB680133BB60BB681E
:100850001F2BF1DDFB680133FB60FB68032BE8DD38
:10086000044B01221A70002318461437BD465DF868
:10087000047B7047701900207015002080B586B089
:1008800000AF78607B68002B10D07B68012B0BD009
:100890007B68022B06D07B68032B01D1204B06E03E
:1008A000002304E01F4B02E01F4B00E01F4BFB60E6
:1008B000F86800F071F978617969F86800F078F902
:1008C00000233B6123E07B6903F00103002B18D078
:1008D00017497B685A013B69134451F82330002BB8
:1008E0000FD013497B685A013B69134451F82330F8
:1008F00010487A6851013A690A4450F8222010469B
:1009000098473B6901333B617B695B087B617B698D
:10091000002BD8D100BF00BF1837BD4680BD00BF37
:1009200000B0004000A00040009000400080004067
:10093000701500207017002080B582B000AF78607D
:100940007B68002B03D1002003F041FA17E07B689D
:10095000012B03D1012003F03AFA10E07B68022B4F
:1009600003D1022003F033FA09E07B68032B03D1A3
:10097000262003F02CFA02E06FF0020303E078680F
:10098000FFF74CFF034618460837BD4680BD000000
:1009900080B584B000AF78607B681B68FB607B68C3
:1009A000997A7B685B681A46F86800F019F9B860B4
:1009B000BB68002B01D0BB68B3E07B68197A7B6809
:1009C0005B681A46F86800F0ADF9B860BB68002BA8
:1009D00001D0BB68A5E07B685B7A042B00F28F80B6
:1009E00001A252F823F000BFFD090010330A0010E5
:1009F000650A0010970A0010CB0A0010FB681A6EF7
:100A00007B685B68DB431A40FB681A66FB685A6EBA
:100A10007B685B68DB431A40FB685A66FB68D3F867
:100A2000B8207B685B68DB431A40FB68C3F8B820DA
:100A300068E0FB681A6E7B685B681A43FB681A669D
:100A4000FB685A6E7B685B68DB431A40FB685A663A
:100A5000FB68D3F8B8207B685B681A43FB68C3F86F
:100A6000B8204FE0FB681A6E7B685B68DB431A4076
:100A7000FB681A66FB685A6E7B685B681A43FB6802
:100A80005A66FB68D3F8B8207B685B681A43FB683A
:100A9000C3F8B82036E0FB681A6E7B685B681A43BF
:100AA000FB681A66FB685A6E7B685B68DB431A401A
:100AB000FB685A66FB68D3F8B8207B685B68DB4349
:100AC0001A40FB68C3F8B8201CE0FB681A6E7B680C
:100AD0005B68DB431A40FB681A66FB685A6E7B68EA
:100AE0005B681A43FB685A66FB68D3F8B8207B68DA
:100AF0005B68DB431A40FB68C3F8B82002E06FF084
:100B000002030EE07B681B7A002B01D1002308E072
:100B10007B68D97A7B685B681A46F86800F072F8DF
:100B2000034618461037BD4680BD00BF80B582B071
:100B300000AF786039603968786800F075F803466E
:100B400018460837BD4680BD80B582B000AF7860DA
:100B500039603968786800F076F800BF0837BD461C
:100B600080BD80B582B000AF786039603968786840
:100B700000F077F800BF0837BD4680BD80B582B071
:100B800000AF786039603968786800F078F803461B
:100B900018460837BD4680BD80B582B000AF78608A
:100BA000786800F089F8034618460837BD4680BDCE
:100BB00080B582B000AF786039603968786800F03D
:100BC0006DF800BF0837BD4680BD80B582B000AF6C
:100BD00078607868FFF752FE00BF0837BD4680BDD9
:100BE00080B584B000AFF8600B467A60FB72FB7A88
:100BF0007A681946F86800F06BF803461846103713
:100C0000BD4680BD80B584B000AFF8600B467A6009
:100C1000FB72FB7A7A681946F86800F0E9F8034637
:100C200018461037BD4680BD80B483B000AF7860F1
:100C300039607B685A6A3B68134018460C37BD46DA
:100C40005DF8047B704780B483B000AF7860396092
:100C50007B683A68DA6100BF0C37BD465DF8047BFB
:100C6000704780B483B000AF786039607B683A68C1
:100C70001A6200BF0C37BD465DF8047B704780B434
:100C800083B000AF786039607B689A693B68134035
:100C900018460C37BD465DF8047B704780B483B0BE
:100CA00000AF786039607B683A689A6400BF0C379F
:100CB000BD465DF8047B704780B483B000AF7860B8
:100CC0007B681B6C18460C37BD465DF8047B70478B
:100CD00080B485B000AFF8600B467A60FB72FB7A97
:100CE000002B02D0012B0AD012E0FB68D3F8C02001
:100CF0007B68DB431A40FB68C3F8C0200BE0FB684D
:100D0000D3F8C0207B681A43FB68C3F8C02002E018
:100D10006FF0020300E0002318461437BD465DF86B
:100D2000047B704780B485B000AFF8600B467A60F2
:100D3000FB72FB681A6B7B681A43FB681A63FB68DB
:100D40007A685A60FB7A032B48D801A252F823F044
:100D5000610D0010830D0010A50D0010C10D0010D5
:100D6000FB687A685A61FB687A685A60FB687A683F
:100D70001A67FB687A68DA67FB687A68C3F88820C4
:100D80002FE0FB687A681A61FB687A685A60FB6832
:100D90007A681A67FB687A68DA67FB687A68C3F86A
:100DA00088201EE0FB687A68C3F88820FB687A68B0
:100DB000DA67FB687A681A67FB687A689A6010E0FD
:100DC000FB687A68C3F88820FB687A68DA67FB6892
:100DD0007A68DA66FB687A689A6002E06FF002036C
:100DE00000E0002318461437BD465DF8047B7047C9
:100DF00080B485B000AFF8600B467A60FB72FB7A76
:100E0000032B53D801A252F823F000BF1D0E00108F
:100E1000430E0010670E00108B0E0010FB68D3F815
:100E2000B0207B68DB431A40FB68C3F8B020FB6846
:100E3000D3F8B4207B68DB431A40FB68C3F8B420C6
:100E400046E0FB68D3F8B0207B681A43FB68C3F820
:100E5000B020FB68D3F8B4207B68DB431A40FB6802
:100E6000C3F8B42034E0FB68D3F8B0207B68DB43E0
:100E70001A40FB68C3F8B020FB68D3F8B4207B6845
:100E80001A43FB68C3F8B42022E0FB68D3F8B02013
:100E90007B681A43FB68C3F8B020FB68D3F8B42022
:100EA0007B681A43FB68C3F8B42011E0FB68D3F8F1
:100EB000B0207B68DB431A40FB68C3F8B020FB68B6
:100EC000D3F8B4207B68DB431A40FB68C3F8B42036
:100ED000002318461437BD465DF8047B704700BFF9
:100EE00080B584B000AFF860B9607A607B68BA689A
:100EF000F968034800F0CDF800BF1037BD4680BD4B
:100F00000090034080B584B000AFF860B9607A60AB
:100F10007B68BA68F968034800F0F4F800BF10373E
:100F2000BD4680BD0090034080B582B000AF7860C0
:100F30003960242002F04BFF272002F048FF1A4BB3
:100F40004FF481721A607B68002B03D07B681B7999
:100F5000012B06D13B68002B09D03B681B79012B84
:100F600005D0114B1B68104A43F0200313607B68C7
:100F7000002B02D00D48FFF70BFD3B68002B02D081
:100F80000B48FFF705FD0B48FFF702FD152003F0A6
:100F900071F83A687968084800F0EDF80346184699
:100FA0000837BD4680BD00BF00580040F4A50310BF
:100FB00000A60310E8A503100090034080B586B09A
:100FC00000AFF860B9607A60BB681968FB687A683E
:100FD000043243F82210BB681B79DB0043F00303A3
:100FE000BA689269002A01D0402200E0002213432F
:100FF0001946FB687A68083243F82210BB681B7CEC
:101000001A07BB685B7C1B061A43BB689B7C1B05ED
:101010001A43BB68DB7C1B041A43BB681B7D1B03A4
:101020001A43BB685B7D1B021343BA68927D13436E
:101030001946FB687A680C3243F8221000237B6162
:101040001DE0BB681B79012B0BD1BB689A687B69DB
:10105000DB00D018BB681B687A681946FFF740FFB1
:101060000AE0BB689A687B69DB00D018BB681B6824
:101070007A681946FFF746FF7B6901337B61BB68DD
:10108000DA687B699A42DCD800BF00BF1837BD46DA
:1010900080BD80B584B000AFF860B9607A603B6015
:1010A000FB68002B2AD0BB68002B27D03B68012BA4
:1010B00024D8FFF799FAFB683A68083253F82230CF
:1010C00043F02001FB683A68083243F82210BB68FD
:1010D0005968BB681A687B681344CAB21A70FB6807
:1010E0003A68083253F8223023F02001FB683A684E
:1010F000083243F82210FFF76DFA00E000BF103706
:10110000BD4680BD80B584B000AFF860B9607A603C
:101110003B60FB68002B2AD0BB68002B27D03B68C4
:10112000012B24D8FFF760FAFB683A68083253F8BD
:10113000223043F02001FB683A68083243F822105D
:10114000BB685968BB681A687B6813448AB21A8006
:10115000FB683A68083253F8223023F02001FB681C
:101160003A68083243F82210FFF734FA00E000BF73
:101170001037BD4680BD80B584B000AFF860B9605F
:101180007A60BB68002B04D00022B968F868FFF7CA
:1011900015FF7B68002B04D001227968F868FFF7FF
:1011A0000DFF002318461037BD4680BD80B586B0C0
:1011B00000AFF860B9607A60FB681B4A934208D0C0
:1011C000FB681A4A934201D1012303E04FF0FF3339
:1011D00000E000237B617B69002B03D07B69012B3E
:1011E00007D00DE00D2002F0F2FD1148FFF7D0FB13
:1011F00009E01C2002F0EBFD0E48FFF7C9FB02E0FE
:101200006FF002030BE07A68B968F86800F03AF909
:1012100038613B69002B01D03B6900E00023184690
:101220001837BD4680BD00BF00D0014000E001403E
:1012300028A5031034A5031080B485B000AFF86072
:10124000B9607A60FB68002B06D0BB68B3F5806F8D
:1012500002D27B68002B02D06FF0020314E0FB681F
:1012600000225A64BB687F2B05D9FB685B6C43F492
:101270000042FB685A64FB685A6CBB68C3F30903FD
:101280001A43FB685A64002318461437BD465DF8BC
:10129000047B704780B582B000AF78607B68154AE8
:1012A000934208D07B68144A934201D1012303E0A2
:1012B0004FF0FF3300E00023002B02D0012B07D0BA
:1012C0000DE0102002F0D6FE0D2002F055FD09E0E1
:1012D000202002F0CFFE1C2002F04EFD02E06FF055
:1012E000020303E0786800F073F9034618460837F4
:1012F000BD4680BD00D0014000E0014080B582B015
:1013000000AF786039603B68074A934202D96FF0BA
:10131000100304E03968786800F0F0F903461846D5
:101320000837BD4680BD00BF40420F0080B582B087
:1013300000AF7860786800F075FA03461846083701
:10134000BD4680BD80B582B000AF7860786800F09F
:101350009FFA034618460837BD4680BD80B582B067
:1013600000AF7860786800F0B7FA0346184608378F
:10137000BD4680BD80B584B000AFF860B9607A60CA
:101380007A68B968F86800F0C5FA0346184610375D
:10139000BD4680BD80B584B000AFF860B9607A60AA
:1013A0007A68B968F86800F0F5FA0346184610370D
:1013B000BD4680BD80B582B000AF7860786800F02F
:1013C00015FB00BF0837BD4680BD80B582B000AFB9
:1013D0007860786800F022FB00BF0837BD4680BD0A
:1013E00080B584B000AFF860B9607A607A68B96897
:1013F000F86800F02BFB00BF1037BD4680BD80B5FC
:1014000082B000AF786039603968786800F030FBEE
:10141000034618460837BD4680BD80B582B000AF90
:101420007860786800F0C8FB034618460837BD4668
:1014300080BD80B582B000AF786039603968786867
:1014400000F0F0FC034618460837BD4680BD80B565
:1014500082B000AF786039603968786800F002FDCA
:10146000034618460837BD4680BD80B582B000AF40
:1014700078600821786801F007F800BF0837BD469A
:1014800080BD000080B586B000AFF860B9607A60BA
:10149000FB68002B02D14FF0FF338EE0FB68494A16
:1014A000934208D0FB68484A934201D1012303E0EC
:1014B0004FF0FF3300E00023FB751021F868FFF7C1
:1014C0009EFF38613B69002B01D03B6975E0FB68EA
:1014D0001B6843F00102FB681A60F868FFF76AFFB7
:1014E000F868FFF772FF0221F868FFF7B0FF0621E6
:1014F000F868FFF79EFFBB68002B19D100227968BE
:10150000F868FFF799FEFB682E4A934208D0FB6803
:101510002D4A934201D1012303E04FF0FF3300E055
:1015200000232A4A5B011344043300221A6019E0A5
:10153000FB681B6843F00202FB681A60FB68214AE3
:10154000934208D0FB68204A934201D1012303E073
:101550004FF0FF3300E000231C4A5B0113440433C7
:1015600001221A6097F91730184A5B0113440833B7
:101570006FF001021A6097F91730144A5B011344A7
:101580000C336FF001021A6097F917300F4A5B01B4
:101590001344103300221A6097F917300B4A5B018D
:1015A0001344143300221A6097F91730074A5B017D
:1015B0001344183300221A70002318461837BD460A
:1015C00080BD00BF00D0014000E001407419002040
:1015D00080B58CB000AF78607B68002B02D14FF0F3
:1015E000FF3381E07B68424A934208D07B68414ADE
:1015F000934201D1012303E04FF0FF3300E00023C9
:1016000087F82F307B6800221A607B680022DA603E
:101610007B6800225A617B689A687B689A607B6865
:101620001A697B681A617B680022DA617B68002294
:101630001A627B6800225A627B6800229A6297F9DC
:101640002F302D4A5B011344184620231A460021EF
:101650002BF0CCFE7868FFF7ADFE7868FFF7B5FE9B
:1016600097F92F30244A5B01134418331B78002B61
:1016700039D0FEF729FF97F92F301F4A5B01134439
:1016800008331B68002B12DB97F92F301A4A5B01D5
:10169000134408331B681846FEF71EFF97F92F30D6
:1016A000154A5B01134408336FF001021A6097F981
:1016B0002F30114A5B0113440C331B68002B12DBE3
:1016C00097F92F300C4A5B0113440C331B68184602
:1016D000FEF702FF97F92F30074A5B0113440C33E2
:1016E0006FF001021A60002318463037BD4680BDF6
:1016F00000D0014000E001407419002080B588B09E
:1017000000AF786039607B68002B02D14FF0FF3367
:101710007AE03B683E4A934240D93B683D4A934257
:101720003CD83D4B1B685A083B68B2FBF3F37B6126
:101730007B695B00394AA2FB03235B08013B3B61E9
:101740007B69364AA2FB03235B08013BBB617B69D3
:1017500003F00103002B02D0BB690133BB61BB69FD
:101760000F2B02DC3B690F2B02DD6FF002034BE015
:101770003B69DBB23B61BB691B029BB2BB613A694F
:10178000BB6913431A467B68DA637B681B6843F4C2
:1017900000427B681A60224B3B6006E03B681D4AB2
:1017A000934202D96FF002032EE01B4B1B685A08CC
:1017B0003B68B2FBF3F37B617B695B08013BFB6138
:1017C0007B695B08013BFB607B6903F00103002B35
:1017D00002D0FB690133FB61FB69B3F5007F02D2E4
:1017E000FB68002B02D16FF002030DE0FB68C3F32E
:1017F00008027B685A63FB69C3F308027B689A633B
:101800007868FFF793FD034618462037BD4680BD34
:1018100040420F0040E1330020140020ABAAAAAAE6
:10182000801A060080B485B000AF78600223FB60A8
:101830007B681B6803F40043002B0DD07B68DB6BD7
:10184000DBB2FA681344FB607B68DB6B1B0ADBB21C
:10185000FA681344FB600DE07B685B6BC3F308031D
:10186000FA681344FB607B689B6BC3F30803FA6858
:101870001344FB60054B1B685A08FB68B2FBF3F38B
:1018800018461437BD465DF8047B704720140020CD
:1018900080B483B000AF78607B68002B02D14FF03A
:1018A000FF3313E07B681B6B03F00103002B06D0B2
:1018B0007B681B6B43F002027B681A6305E07B6860
:1018C0001B6B43F001027B681A63002318460C3738
:1018D000BD465DF8047B704780B483B000AF78608C
:1018E0007B68002B02D14FF0FF330DE07B681B6B50
:1018F00043F004027B681A6300BF7B681B6B03F034
:101900000403002BF9D1002318460C37BD465DF8BF
:10191000047B704780B487B000AFF860B9607A602C
:1019200000237B61FB68002B02D0BB68002B0BD12E
:101930004FF0FF3313E0FB68D96A7B695A1C7A6168
:10194000BA681344CAB21A707A687B699A4205D998
:10195000FB685B6803F00203002BECD07B69184640
:101960001C37BD465DF8047B704780B483B000AF80
:1019700078607B68002B02D14FF0FF3304E07B6876
:101980001B6A1B0A03F00F0318460C37BD465DF8AF
:10199000047B704780B487B000AFF860B9607A60AC
:1019A00000237B61FB68002B02D0BB68002B0CD1AD
:1019B0004FF0FF3314E07B695A1C7A61BA68134414
:1019C0001B78DBB21A46FB68DA627A687B699A4256
:1019D00005D9FB685B6803F01003002BEBD07B6933
:1019E00018461C37BD465DF8047B704780B483B051
:1019F00000AF78607B68DB6943F080027B68DA6166
:101A000000BF7B68DB6903F08003002BF9D100BFC6
:101A100000BF0C37BD465DF8047B704780B483B0CF
:101A200000AF78607B685B6A43F080027B685A6233
:101A300000BF7B685B6A03F08003002BF9D100BF15
:101A400000BF0C37BD465DF8047B704780B485B09D
:101A500000AFF860B9607A60FB68BA689A60FB68AA
:101A60007A681A6100BF1437BD465DF8047B704781
:101A700080B586B000AF786039607B68002B02D1FA
:101A80004FF0FF3393E06FF008037B617B681B68C6
:101A900043F001027B681A607B681B6803F4806373
:101AA000FB607B68002B02D14FF0FF337FE07B6847
:101AB0001B6843F480627B681A6000233B6162E02C
:101AC0000A2002F095F87B681B6823F040027B68CF
:101AD0001A600A2002F08CF87B681B6803F480739C
:101AE000002B06D07B681B6843F0C0027B681A603D
:101AF00046E00A2002F07CF87B681B6823F0800235
:101B00007B681A600A2002F073F87B681B6803F494
:101B10000073002B06D07B681B6843F0C0027B6813
:101B20001A602DE00A2002F063F87B681B6843F01E
:101B300080027B681A600A2002F05AF87B681B68F2
:101B400003F40073002B06D17B681B6843F0C002CE
:101B50007B681A6014E00A2002F04AF87B681B6870
:101B600043F040027B681A600A2002F041F87B686B
:101B70001B6803F48073002B02D000237B6106E016
:101B80003B6901333B613A693B689A4298D3FB68F1
:101B9000002B05D17B681B6823F480627B681A6088
:101BA0007B681B6823F001027B681A607B6918461A
:101BB0001837BD4680BD000080B586B000AF7860A4
:101BC0007B681B68FB6000237B6100233B617B68B3
:101BD0005B687F2B02D96FF010031BE1FB688F4A13
:101BE000934206D0FB688E4A934202D06FF0020304
:101BF00010E1FB681B6803F00203002B02D16FF0B9
:101C0000060307E107226FF07F41F868FFF7E8FB62
:101C1000F868FFF7DAFBF868FFF7CCFBFB680022F7
:101C2000DA60FB6800225A617B685B69002B03D095
:101C30007B68DB68002B34D07B685B685A00FB68EC
:101C4000DA62FB681B6B43F00102FB681A6328E051
:101C5000FB689B6803F02003002B13D07B689A6815
:101C60007B69D1187B68DA687B69D31A1A46F868F1
:101C7000FFF790FB03461A467B6913447B61FB68C0
:101C800020229A60FB689B6803F4FE43002B08D077
:101C90007B687A69DA60F868FFF760FB6FF0080329
:101CA000B8E07B68DB687A699A42D1D300221121BF
:101CB000F868FFF795FB7B685B69002B79D07B6840
:101CC0005B69B3F5807F03D9FB6800221A6203E0E9
:101CD0007B685A69FB681A62F868FFF733FB00BF3C
:101CE000FB681B6B03F00203002BF9D17B685B6878
:101CF0005B0043F00102FB68DA625AE0FB689B6814
:101D000003F01103002B13D07B681A693B69D118CB
:101D10007B685A693B69D31A1A46F868FFF72AFBB1
:101D200003461A463B6913443B61FB6810229A60E4
:101D3000FB689B6803F4FE43002B08D07B683A697C
:101D40005A61F868FFF70AFB6FF0080362E0FB686E
:101D50009B6803F00103002B2BD07B685B693A6919
:101D60009A4226D2F868FFF700FE0346002B20D1E6
:101D70007B685A693B69D31AB3F5807F03D9FB6846
:101D800000221A6205E07B685A693B69D21AFB6837
:101D90001A62FB681B6B43F00202FB681A63FB6864
:101DA00001229A607B685B685B0043F00102FB687C
:101DB000DA627B685B693A699A429FD37B689B6968
:101DC000002B06D0FB681B6B43F00202FB681A6312
:101DD0000CE0FB681B6B43F00402FB681A6300BF56
:101DE000FB689B6803F04003002BF9D000BFFB6841
:101DF0009B6803F00103002BF9D0FB6841229A6035
:101E0000FB689B6803F4FE43002B02D06FF00803CD
:101E100000E0002318461837BD4680BD00D00140C1
:101E200000E0014080B485B000AF786039607B6825
:101E30009B69DBB2FB603A68FB689A4202D96FF09B
:101E4000020309E07B68DB6923F470623B681B02D4
:101E50001A437B68DA61002318461437BD465DF8E3
:101E6000047B704780B485B000AF786039607B68D0
:101E70009B691B0ADBB2FB603A68FB689A4202D995
:101E80006FF0020309E07B685B6A23F470623B68D1
:101E90001B021A437B685A62002318461437BD465A
:101EA0005DF8047B7047000080B584B000AF7860B7
:101EB00039607B680E4A934208D07B680D4A934292
:101EC00001D1012303E04FF0FF3300E000230A4A71
:101ED00052F82330FB60FB68DB69002B04D0FB6801
:101EE000DB693968F868984700BF1037BD4680BD88
:101EF00000D0014000E00140B419002080B483B05C
:101F000000AF78607B680022DA607B6800225A614B
:101F10007B689A687B689A607B681A697B681A613B
:101F20007B680B4A934208D07B680A4A934201D1EE
:101F3000012303E04FF0FF3300E00023064A0021B5
:101F400042F8231000BF0C37BD465DF8047B704794
:101F500000D0014000E00140B419002080B586B0F7
:101F600000AF7860904A7B6852F823307B618F4ADB
:101F70007B6852F823303B617B68002B06D07B687E
:101F8000012B01D18A4B02E0002300E0894BFB606A
:101F9000894A7B6852F82330BB60FB689B6803F476
:101FA000FE43002B19D0FB689A68FB689A60FB68B7
:101FB0001A69FB681A61FB680022DA60FB6800227C
:101FC0005A61F868FFF7CAF96FF00801F868FFF77F
:101FD0006BFFF868FFF792FFE2E0BB68DB687A69A5
:101FE0009A4243D2FB689B6803F02003002B13D076
:101FF000BB689A687B69D118BB68DA687B69D31AB9
:102000001A46F868FFF7C6F903461A467B69134477
:102010007B61FB6820229A60BB68DB687A699A4220
:1020200006D2FB68DB6843F02002FB68DA6005E05B
:10203000FB68DB6823F02002FB68DA60BB68DB68C2
:102040007A699A4212D1BB685B69002B0ED0FB689B
:102050001B6B43F00202FB681A63FB6801229A6063
:10206000FB68DB6843F00102FB68DA60BB685B6910
:102070003A699A4219D2FB689B6803F01103002B5E
:1020800013D0BB681A693B69D118BB685A693B69B0
:10209000D31A1A46F868FFF76DF903461A463B69EA
:1020A00013443B61FB6810229A60BB68DB687A6965
:1020B0009A423AD1BB685B693A699A4235D0FB686B
:1020C0009B6803F00103002B2FD0FB6801229A606C
:1020D0003B69002B06D1BB685B685B0043F00102E3
:1020E000FB68DA62BB685A693B69D31AB3F5807F33
:1020F00003D9FB6800221A6205E0BB685A693B6994
:10210000D21AFB681A62BB685B693A699A4206D2C6
:10211000FB68DB6843F01102FB68DA6005E0FB68EE
:10212000DB6823F01102FB68DA60BB68DB687A6960
:102130009A422BD1BB685B693A699A4226D1FB6807
:102140000022DA60FB6800225A61FB689A68FB682B
:102150009A60FB681A69FB681A61BB689B69002B6F
:1021600006D0FB681B6B43F00202FB681A6305E0B4
:10217000FB681B6B43F00402FB681A630021F868DC
:10218000FFF792FEF868FFF7B9FE09E006497B68A1
:102190007A6941F8232005497B683A6941F8232090
:1021A0001837BD4680BD00BFBC190020C4190020EF
:1021B00000E0014000D00140B419002080B586B095
:1021C00000AFF860B9607A603B60FB689B687B6138
:1021D0003B6800221A607B6903F4FE43002B30D079
:1021E0003B686FF008021A60BB68002B04D0BB6824
:1021F0003A680421F868984707226FF07F41F86831
:10220000FFF724FCF868FFF709FCF868FFF7EEFB1E
:102210007B6800221A607B68043300221A60FB6826
:10222000964A934208D0FB68954A934201D1012314
:1022300003E04FF0FF3300E00023924A002142F810
:1022400023107B681B6803F01003002B06D17B680A
:1022500004331B6803F00103002B20D07B6903F0DB
:102260001003002B0AD0BB68002B04D0BB680022EF
:102270000221F8689847FB6810229A60FB681B6986
:1022800003F00103002B0AD0BB68002B04D0BB680D
:1022900000220621F8689847FB6801221A617B68D2
:1022A0001A6848F220031340002B06D17B680433E0
:1022B0001B6803F00203002B4DD07B6903F0200361
:1022C000002B0AD0BB68002B04D0BB68002203217E
:1022D000F8689847FB6820229A60FB681B6903F046
:1022E0000203002B0AD0BB68002B04D0BB6800227D
:1022F0000521F8689847FB6802221A617B6903F49C
:102300000043002B27D03B6800221A60BB68002BDB
:1023100004D0BB683A680421F8689847FB684FF41A
:1023200000429A607B6800221A607B6804330022B6
:102330001A60FB68514A934208D0FB68504A9342A6
:1023400001D1012303E04FF0FF3300E000234D4AA9
:10235000002142F823107B681B6803F00103002B67
:1023600037D07B6903F04003002B27D03B68002265
:102370001A60BB68002B04D0BB683A680421F86877
:102380009847FB6840229A607B6800221A607B684D
:10239000043300221A60FB68384A934208D0FB6875
:1023A000374A934201D1012303E04FF0FF3300E0AD
:1023B0000023344A002142F823100AE07B6903F02D
:1023C0000103002B05D0FB6801229A607B6808227C
:1023D0001A607B681B6803F00803002B4AD07B69F6
:1023E00003F00803002B45D07B6903F04003002B6A
:1023F00007D07B6903F00103002B02D1FB68402268
:102400009A60FB681B6803F40063002B1BD0BB6859
:10241000002B04D0BB6800220121F8689847FB68B4
:102420004FF480029A60FB6808229A60FB684FF4C0
:1024300000429A607B684FF621721A607B68043311
:1024400002221A6016E0BB68002B04D0BB68002291
:102450000021F8689847FB684FF400029A60FB6817
:1024600008229A607B6847F611721A607B68043311
:1024700001221A6000BF1837BD4680BD00D0014060
:1024800000E00140B419002080B588B000AF78604A
:1024900039607B681C4A934208D07B681B4A934290
:1024A00001D1012303E04FF0FF3300E00023FB6183
:1024B000FB69002B23DB7B681B6803F00203002B06
:1024C00003D0F869FFF74AFD1AE0114AFB6952F898
:1024D0002330BB617B68DB68FB607B685B693B61C9
:1024E00007F1140307F10C02B9697868FFF766FE7B
:1024F000FA687B68DA603A697B685A6100E000BF7D
:102500002037BD4680BD00BF00D0014000E0014043
:10251000B419002080B500AF00F012F800F002F806
:1025200000BF80BD80B500AF034800F02CF8034821
:1025300000F029F800BF80BD00A0024000F002407A
:1025400080B500AF034800F049F8034800F01BF8DD
:1025500000BF80BD00A0024000F0024080B500AF87
:10256000FFF7D8FF00BF80BD80B483B000AF7860B4
:102570007B68D3F8003103F4803318460C37BD462E
:102580005DF8047B704780B582B000AF78607B68EF
:10259000D3F8003123F001027B68C3F800217B6887
:1025A0000122C3F8002700BF7868FFF7DDFF03466C
:1025B000002BF9D07B68D3F8003143F001027B682F
:1025C000C3F8002100BF7868FFF7CEFF0346002B59
:1025D000F9D000BF00BF0837BD4680BD80B483B0CE
:1025E00000AF78607B68D3F8003123F001027B688C
:1025F000C3F8002100BF0C37BD465DF8047B70476F
:1026000080B582B000AF78607968044800F044F883
:10261000034618460837BD4680BD00BF0060004035
:1026200080B582B000AF78607968044800F059F84E
:10263000034618460837BD4680BD00BF0060004015
:1026400080B500AF024800F072F80346184680BD1E
:102650000060004080B582B000AF786079680448BF
:1026600000F073F8034618460837BD4680BD00BF2A
:102670000060004080B400AF00BF064B1B6903F050
:102680000803002BF9D100BF00BFBD465DF8047BF5
:10269000704700BF0060004080B582B000AF786036
:1026A00039603B6803F026033B603B68002B02D196
:1026B0006FF0020311E0FFF7DDFF7B681A693B68EA
:1026C0001A437B681A613B6823F020033B603B6838
:1026D000002B01D0FFF7CEFF002318460837BD4678
:1026E00080BD80B582B000AF786039603B6803F090
:1026F00026033B603B68002B02D16FF0020312E01F
:10270000FFF7B8FF7B681A693B68DB431A407B68B8
:102710001A613B6823F020033B603B68002B01D02B
:10272000FFF7A8FF002318460837BD4680BD80B4D8
:1027300083B000AF78607B681B6903F0D003184654
:102740000C37BD465DF8047B704780B483B000AFA2
:10275000786039607B681A693B6803F0D003DB431B
:102760001A407B681A61002318460C37BD465DF895
:10277000047B704780B582B000AF78602A2001F0FA
:1027800026FB1848FEF704F91748FEF701F9164B27
:102790001B68D3F8C010144B5A68134B1B680A43CC
:1027A000C3F8C0200F4B1B68D3F8B0100D4B5A680C
:1027B0000C4B1B680A43C3F8B0200B4B1B68D3F8C3
:1027C000B010094B5A68084B1B680A43C3F8B02085
:1027D0007968064800F0D0F8034618460837BD4629
:1027E00080BD00BF0CA6031018A6031000600B40AC
:1027F00080B500AF024800F0F9F800BF80BD00BF0F
:1028000000600B4080B582B000AF78607968034803
:1028100000F078F800BF0837BD4680BD00600B406F
:1028200080B400AF4FF080439B6903F08003002B1E
:1028300003D0054B1B685B0800E0044B1846BD46FF
:102840005DF8047B704700BF2014002080F0FA027E
:1028500080B582B000AF78607968044800F06EF906
:10286000034618460837BD4680BD00BF00600B40D8
:1028700080B500AF024800F0AEF90346184680BDAF
:1028800000600B4080B500AF024800F0D1F900BFF6
:1028900080BD00BF00600B4080B500AF024800F073
:1028A000DFF900BF80BD00BF00600B4080B500AF06
:1028B000024800F0EDF90346184680BD00600B4069
:1028C00080B500AF024800F0F7F90346184680BD16
:1028D00000600B4080B500AF024800F0FBF90346F2
:1028E000184680BD00600B4080B582B000AF7860B4
:1028F0007968034800F0FAF900BF0837BD4680BD8B
:1029000000600B4080B483B000AF786039607B68B2
:1029100000229A853B689BB21B029AB27B689A851B
:102920007B689B8D9AB23B681B0A9BB29B019BB252
:10293000DBB29BB213439AB27B689A857B689B8D0E
:102940009BB243F001039AB27B689A8500BF7B6813
:102950009B8D9BB203F00203002BF8D07B689B8D0C
:102960009BB243F004039AB27B689A8500BF0C3790
:10297000BD465DF8047B704780B582B000AF7860DB
:1029800039603B689B68B3F5806F02D36FF0020338
:1029900028E0FFF777FF3B681B68DBB25B00DBB228
:1029A00003F00E03DAB27B6883F829203B685B688A
:1029B000DAB27B6883F82A207B68002283F828201B
:1029C0003B689B681846FFF71DFF7B68072283F86A
:1029D0002E207B684FF6FF729A867B684FF6FF7257
:1029E000DA86002318460837BD4680BD80B483B020
:1029F00000AF78607B6893F82930DBB243F00103C5
:102A0000DAB27B6883F8292000BF0C37BD465DF839
:102A1000047B704780B584B000AF78603960FFF701
:102A200027FF0346002B02D16FF0010382E07B6891
:102A30005B6A03F00103002B02D06FF0060379E01C
:102A40007B689B8D9BB243F004039AB27B689A85A6
:102A50003B68DA687B689A603B68DB69FB603B68CF
:102A60005B69022B03D03B685B69012B03D1FB68D8
:102A700023F09803FB60FB68DAB27B6883F82820B8
:102A80007B681B8E9AB27B681A867B685B8E9AB2D3
:102A90007B685A863B685B69002B44D07B680022C8
:102AA0009A813B681A687B681A603B681B69002B37
:102AB00007D07B689B899BB243F001039AB27B6885
:102AC0009A813B685B69022B08D17B689B899BB22A
:102AD00023F010039AB27B689A8107E07B689B8998
:102AE0009BB243F010039AB27B689A813B685B68A3
:102AF0009BB2C3F30B039BB243F4E0439AB27B68EF
:102B00009A803B689B68012B13D97B689B899BB299
:102B100043F026039AB27B689A813B689B689AB21D
:102B20007B68DA8005E07B6800229A817B6800225E
:102B30001A60002318461037BD4680BD80B584B0AA
:102B400000AF7860396039687868FFF763FFF86034
:102B5000FB68002B01D0FB6839E03B689B699AB2A7
:102B60007B68DA813B685B69002B0ED100BF7B6814
:102B70001B8E9BB203F00103002B14D17B681B8ECC
:102B80009BB21BB2002BF2DA0DE000BF7B681B8EFC
:102B90009BB203F00203002B05D17B681B8E9BB216
:102BA0001BB2002BF2DA7B681B8E9BB21BB2002B90
:102BB0000CDA7B685B8E9BB203F01103002B02D012
:102BC0006FF0090303E06FF0080300E000231846EC
:102BD0001037BD4680BD80B487B000AF78607B6899
:102BE0005B6A03F48023002B14BF01230023DBB2B4
:102BF0007B617B685B6A03F48033002B14BF012385
:102C00000023DBB23B617B685B6A03F40033002B7B
:102C100014BF01230023DBB2FB607A693B691A40D1
:102C2000FB68134018461C37BD465DF8047B7047AF
:102C300080B483B000AF78607B68012283F82F20D6
:102C400000BF7B6893F82F30DBB203F00103002B49
:102C5000F7D100BF00BF0C37BD465DF8047B70475D
:102C600080B483B000AF78607B68062283F82F20A1
:102C700000BF7B6893F82F30DBB203F00603002B14
:102C8000F7D100BF00BF0C37BD465DF8047B70472D
:102C900080B483B000AF78607B685B6A1B0D03F083
:102CA0000103002B0CBF01230023DBB218460C37B5
:102CB000BD465DF8047B704780B483B000AF786098
:102CC0007B6893F82830DBB218460C37BD465DF8B8
:102CD000047B704780B483B000AF78607B681B6969
:102CE00018460C37BD465DF8047B704780B485B04C
:102CF00000AF786039607B681B69FB60FB68DAB203
:102D00003B681A70FB681A0A3B680133D2B21A702A
:102D1000FB681A0C3B680233D2B21A70FB681A0EB9
:102D20003B680333D2B21A707B685B69FB603B6817
:102D30000433FA68D2B21A70FB681A0A3B6805338A
:102D4000D2B21A70FB681A0C3B680633D2B21A7002
:102D5000FB681A0E3B680733D2B21A707B689B6916
:102D6000FB603B680833FA68D2B21A70FB681A0A33
:102D70003B680933D2B21A70FB681A0C3B680A33FD
:102D8000D2B21A70FB681A0E3B680B33D2B21A70BB
:102D90007B68DB69FB603B680C33FA68D2B21A705F
:102DA000FB681A0A3B680D33D2B21A70FB681A0C22
:102DB0003B680E33D2B21A70FB681A0E3B680F33B1
:102DC000D2B21A7000BF1437BD465DF8047B70475D
:102DD00080B586B002AFF860B9607A603B603B684E
:102DE000042B02DD6FF0020369E0374B1B685B08C0
:102DF000FA699A4202D96FF0020360E0FB68334A35
:102E0000934214D0FB68324A93420ED0FB68314A99
:102E1000934208D0FB68304A934201D1032307E074
:102E20004FF0FF3304E0022302E0012300E000231F
:102E3000032B36D801A252F823F000BF4D2E00100C
:102E4000672E00107B2E00108F2E00100D2001F039
:102E500011F9062000F0BBFF2048FDF799FD20483E
:102E6000FDF796FD20E00E2001F004F9072000F0A8
:102E7000AEFF1C48FDF78CFD16E00F2001F0FAF8BC
:102E8000082000F0A4FF1848FDF782FD0CE029207F
:102E900001F0F0F82E2000F09AFF1448FDF778FDBD
:102EA00002E06FF002030AE0FB690193BB69009343
:102EB0003B687A68B968F86800F028F90346184654
:102EC0001037BD4680BD00BF2014002000600440C4
:102ED000007004400080044000E00B4040A5031057
:102EE0004CA5031058A5031094A50310D0A50310FA
:102EF00080B582B000AF7860786800F0FFF97B6839
:102F00001E4A934214D07B681D4A93420ED07B68C0
:102F10001C4A934208D07B681B4A934201D1032389
:102F200007E04FF0FF3304E0022302E0012300E05A
:102F30000023032B1AD801A252F823F04D2F0010C2
:102F4000552F00105D2F0010652F0010062000F097
:102F50003EFF0EE0072000F03AFF0AE0082000F0F4
:102F600036FF06E02E2000F032FF02E06FF0020391
:102F700000E0002318460837BD4680BD00600440CD
:102F8000007004400080044000E00B4080B483B037
:102F900000AF78607B68184A934210D07B68174A6C
:102FA00093420CD07B68164A934208D07B68154A3E
:102FB000934204D1144B1B6823F0010315E07B6896
:102FC0000D4A93420BD07B680C4A934207D07B6832
:102FD0000B4A934203D07B680A4A934203D10A4BBF
:102FE0001B685B0801E06FF0020318460C37BD4612
:102FF0005DF8047B704700BF00600440007004402F
:103000000080044000E00B402014002080B582B016
:1030100000AF786039603968786800F035FA0346A7
:1030200018460837BD4680BD80B582B000AF7860D5
:1030300039603968786800F08FFA03461846083717
:10304000BD4680BD80B582B000AF7860786800F082
:10305000FDFA034618460837BD4680BD80B582B0EC
:1030600000AF78600B46FB70FB781946786800F07B
:1030700005FB034618460837BD4680BD80B582B0C3
:1030800000AF78600B46FB70FB781946786800F05B
:1030900031FB034618460837BD4680BD80B584B075
:1030A00000AFF860B9607A607A68B968F86800F0D3
:1030B00071FB034618461037BD4680BD80B582B00F
:1030C00000AF7860786800F0C7FB03461846083701
:1030D000BD4680BD80B584B000AFF860B9607A604D
:1030E0007A68B968F86800F0C6FB034618461037DE
:1030F000BD4680BD80B582B000AF7860786800F0D2
:1031000018FC034618460837BD4680BD80B586B01A
:1031100000AFF860B9607A603B60FB68714A934227
:1031200014D0FB68704A93420ED0FB686F4A9342FA
:1031300008D0FB686E4A934201D1032307E04FF0A9
:10314000FF3304E0022302E0012300E000237B615F
:103150007B69002B02DA6FF00203BEE065497A69F1
:1031600013469B001344DB000B4400221A606149A4
:103170007A6913469B001344DB000B44083300229A
:103180001A605C497A6913469B001344DB000B44C8
:103190000C3301221A6057497A6913469B00134485
:1031A000DB000B44103300221A6052497A6913463F
:1031B0009B001344DB000B441C3300221A604D4972
:1031C0007A6913469B001344DB000B442033002232
:1031D0001A6048497A6913469B001344DB000B448C
:1031E00014336FF001021A6042497A6913469B005A
:1031F0001344DB000B4418336FF001021A603D49A1
:103200007A6913469B001344DB000B4427330122E9
:103210001A70FB6801225A60FB68374A1A61BB6862
:10322000002B06D0FB685B6843F00202FB685A6023
:1032300005E0FB685B6823F00202FB685A60796A6C
:10324000F868FFF7E3FE3B6AFF2B02D96FF0020339
:1032500043E0FB68DA683B6A1B041A43FB68DA60E8
:10326000FB681A6AFB681A6222497A6913469B0056
:103270001344DB000B4427331B78002B23D03B681F
:10328000012B05D1FB685B6843F48032FB685A6010
:103290003B68022B05D1FB685B6843F44032FB6856
:1032A0005A603B68032B05D1FB685B6843F4E0225E
:1032B000FB685A603B68042B05D1FB685B6843F4EC
:1032C0007022FB685A607B68002B05D0FB68DB68C6
:1032D00043F40052FB68DA60002318461837BD46F5
:1032E00080BD00BF006004400070044000800440C6
:1032F00000E00B40CC1900200101010080B584B032
:1033000000AF78607B685B4A934214D07B685A4A6E
:1033100093420ED07B68594A934208D07B68584A42
:10332000934201D1032307E04FF0FF3304E002236F
:1033300002E0012300E00023FB607B6800225A6268
:103340007B681A6A7B681A627B685B6823F00102FB
:103350007B685A607B68DB6923F040127B68DA6126
:103360004849FA6813469B001344DB000B441B6872
:10337000002B2AD04349FA6813469B001344DB0014
:103380000B441B68BB60FA6813469B001344DB00C8
:103390003C4A1344184600F08AFC3A49FA6813463E
:1033A0009B001344DB000B441B685B6A002B0CD0B2
:1033B0003449FA6813469B001344DB000B441B6836
:1033C0005B6A6FF00E01B86898477B6800225A600C
:1033D0007B6800229A607B680022DA607B680022AA
:1033E0001A612849FA6813469B001344DB000B441A
:1033F00014331B68002B16DB2249FA6813469B0026
:103400001344DB000B4414331B681846FDF78CF89B
:103410001C49FA6813469B001344DB000B44143329
:103420006FF001021A601749FA6813469B001344B3
:10343000DB000B4418331B68002B16DB1149FA68BC
:1034400013469B001344DB000B4418331B681846DB
:10345000FDF76AF80B49FA6813469B001344DB003A
:103460000B4418336FF001021A600023184610371E
:10347000BD4680BD006004400070044000800440F0
:1034800000E00B40CC19002080B586B000AF78601A
:103490003960304B1B685B083A689A4202D96FF07A
:1034A000020353E07868FFF771FD0346BB60BA681A
:1034B0003B68B2FBF3F3BB60BB685B087B61BB6836
:1034C0005B083B610023FB60BB6803F00103002B3A
:1034D00010D07B6901337B610CE07B69DA0F134408
:1034E0005B107B613B69DA0F13445B103B61FB6847
:1034F0000133FB607B690F2B02DDFB68072BECDDE2
:10350000FB68082B03D10F233B610F237B617B6892
:103510005B6923F0FF023B69DBB21A437B685A61A7
:103520007B685B6923F47F427B691B029BB21A4371
:103530007B685A617B685B6923F47022FB681B041B
:1035400003F470231A437B685A6100231846183726
:10355000BD4680BD2014002080B485B000AF7860E7
:1035600039603B68012B02D03B68102B02DD6FF005
:1035700002035AE07B68304A934214D07B682F4A9A
:1035800093420ED07B682E4A934208D07B682D4A26
:10359000934201D1032307E04FF0FF3304E00223FD
:1035A00002E0012300E00023FB607B681B6B03F05B
:1035B0000103002B37D12449FA6813469B001344BA
:1035C000DB000B440C331B68012B2CD17B685B6840
:1035D00023F001027B685A6039681B48FA68134679
:1035E0009B001344DB000344083319603B680F2B36
:1035F0000BDC7B68DB6823F470623B681B0203F41E
:1036000070631A437B68DA6005E07B68DB6823F44B
:1036100070627B68DA607B685B6843F001027B68FC
:103620005A60002301E06FF0060318461437BD46C8
:103630005DF8047B704700BF0060044000700440E8
:103640000080044000E00B40CC19002080B483B01F
:1036500000AF78607B68DB6803F47063002B01D1F6
:10366000102304E07B68DB681B0A03F00F03184695
:103670000C37BD465DF8047B7047000080B483B012
:1036800000AF78600B46FB707B68DB6823F4304248
:103690007B68DA60FB78032B24D801A252F823F070
:1036A000B1360010BF360010C9360010D7360010F2
:1036B0007B68DB6843F400427B68DA6012E07B6879
:1036C000DA687B68DA600DE07B68DB6843F480527F
:1036D0007B68DA6006E07B68DB6843F400527B6855
:1036E000DA6000BF002318460C37BD465DF8047B46
:1036F000704700BF80B483B000AF78600B46FB70AA
:10370000FB78032B3ED801A252F823F01D3700109E
:1037100037370010513700106B3700107B68DB68BB
:1037200023F001027B68DA607B68DB6823F0020229
:103730007B68DA6027E07B68DB6843F001027B6826
:10374000DA607B68DB6823F002027B68DA601AE0EB
:103750007B68DB6823F001027B68DA607B68DB68EA
:1037600043F002027B68DA600DE07B68DB6843F0BF
:1037700001027B68DA607B68DB6843F002027B68E9
:10378000DA6000E000BF002318460C37BD465DF844
:10379000047B704780B588B000AFF860B9607A608C
:1037A000BB68002B02D07B68002B01D100234FE0C7
:1037B000F868FFF783FCB861F868FFF743FC03463D
:1037C0007B617A68BB699A4201D9BB697B607B697E
:1037D000082B03D97B6823F001037B600023FB6186
:1037E00032E07B69082B23D97B68032B0CD9BA689C
:1037F000FB691344FA6812681A607B68043B7B60BB
:10380000FB690433FB610FE07B68012B0CD9BA68BC
:10381000FB691344FA68128892B21A807B68023BF3
:103820007B60FB690233FB617B68012B0CD10EE0EE
:10383000FB695A1CFA61BA681344FA681278D2B26A
:103840001A707B68013B7B607B68002BC9D1FB69E8
:1038500018462037BD4680BD80B483B000AF786085
:103860007B68DB691B0E03F03F0318460C37BD462F
:103870005DF8047B704780B588B000AFF860B96030
:103880007A60BB68002B02D07B68002B01D100233B
:103890004BE0F868FFF72EFCB861F868FFF7D2FB41
:1038A00003467B617A68BB699A4201D9BB697B6038
:1038B0007B69082B03D97B6823F001037B6000231D
:1038C000FB612EE07B69082B20D97B68032B0CD988
:1038D000FB68B968FA690A4412681A607B68043B9D
:1038E0007B60FB690433FB611BE07B68012B18D90B
:1038F000FB68B968FA690A44128892B21A807B6838
:10390000023B7B60FB690233FB610AE0FB695A1CE6
:10391000FA61BA6813441A78FB681A707B68013B35
:103920007B607B68002BCDD1FB6918462037BD46F4
:1039300080BD80B483B000AF78607B68DB691B0A10
:1039400003F03F03C3F1200318460C37BD465DF872
:10395000047B704780B483B000AF78607B68D3F895
:10396000003143F001027B68C3F8002100BF0C372F
:10397000BD465DF8047B704780B483B000AF7860CB
:103980007B68D3F8003123F001027B68C3F8002183
:1039900000BF0C37BD465DF8047B704780B500AFB3
:1039A0000F4B1B6803F48033002B16D00D4B1B68A4
:1039B000002B05DD0B4B1B68013B0A4A13600CE032
:1039C00000F0F6F8084B1B68002B06D0064B1B686E
:1039D00000209847044B00221A6000BF80BD00BF42
:1039E00010E000E004000020741A00202DE9B0432C
:1039F00086B000AF786036498968796134490968D2
:103A000021F48031334801603149096801F0010136
:103A1000002911D12E496FF07F4048602C496FF08A
:103A20007F4088602A49052008606FF07F417961F6
:103A30004FF08071396103E02549496801313961EE
:103A400079680020884681462349096800200A4693
:103A5000034602FB09F008FB03F10144A8FB024501
:103A60004B191D461D4A4FF000032046294628F0F9
:103A7000B7FE02460B461346FB60FA683B69B2FB91
:103A8000F3F31A46164B1A60FB683A69B3FBF2F27D
:103A9000396901FB02F29B1ABB60BA687B699A42E2
:103AA0000CD30F4B1B6801330D4A13607A69BB6856
:103AB000D21A3B6913440B4A136004E07A69BB686D
:103AC000D31A084A136000BF1837BD46BDE8B0835B
:103AD00010E000E0701A00202014002040420F0087
:103AE000040000206C1A002080B582B000AF78601E
:103AF0003960104A3B6813600F4B1B68002B02DDD6
:103B00006FF0050312E07B68002B01D100230DE06C
:103B10007868FFF76BFF084B1B68002B05DD074B30
:103B20001B68064A43F00203136000231846083757
:103B3000BD4680BD741A00200400002010E000E0A3
:103B400080B500AF164B1B68002B0CDA154B1B68B9
:103B5000002B06D0134B1B6800209847114B002206
:103B60001A6000231AE00E4B1B68002B14D10E4B79
:103B70009A680E4B1B689A420ED800F019F8094B50
:103B80001B68002B06D0074B1B6800209847054B8D
:103B900000221A60002301E06FF00503184680BD83
:103BA00004000020741A002010E000E06C1A0020CD
:103BB00080B500AF0A4B1B68002B07D0084B1B6871
:103BC0006FF00F009847064B00221A60054A064B1B
:103BD0001B681360054B4FF0FF321A6000BF80BDB9
:103BE000741A002010E000E0701A00200400002089
:103BF00080B582B000AF7860164B1B68002B02DDE9
:103C00006FF0050321E07B68002B01D100231CE04D
:103C10007868FFF7EBFE0AE00F4B1B6803F4803374
:103C2000002B04D00B4B1B68013B0A4A1360094B65
:103C30001B68002BF0DC00BF074B9A68074B1B6822
:103C40009A42F9D8FFF7B4FF002318460837BD465B
:103C500080BD00BF0400002010E000E06C1A0020CE
:103C600080B489B000AF786039607B68FB61FB6924
:103C700053E8003FBB61BB69002B02D06FF0050326
:103C80000FE03B687B617B683B6139697A6941E899
:103C90000023FB60FB68002BE7D1BFF35F8F00BF01
:103CA000002318462437BD465DF8047B704780B476
:103CB00083B000AF7860BFF35F8F00BF7B680022E6
:103CC0001A6000BF0C37BD465DF8047B70470000EA
:103CD00080B483B000AF0346FB71FB7903F01F0390
:103CE000012202FA03F1064A97F907305B0942F80C
:103CF000231000BF0C37BD465DF8047B704700BF42
:103D000000E100E080B500AF064A074B10461946B7
:103D10004FF4C2731A4629F053FA044B014A9A60D1
:103D200000BF80BD001C00200000001000ED00E07E
:103D300080B584B000AF03463960FB7197F9073056
:103D40001033FB600A4B9B680A4A934201D0FFF78D
:103D5000D9FF0849FB683A6841F8232097F90730F2
:103D60001846FFF7B5FF00BF1037BD4680BD00BF46
:103D700000ED00E0001C002080B483B000AF0346DB
:103D8000FB71FB791F2B0FD9FB79203BFB714FF0A7
:103D900080439B6CFA79012101FA02F211464FF03F
:103DA00080420B4393640BE04FF080435B6AFA79E7
:103DB000012101FA02F211464FF080420B43536297
:103DC000002318460C37BD465DF8047B704780B46D
:103DD00083B000AF0346FB71FB791F2B10D9FB7931
:103DE000203BFB714FF080439B6CFA79012101FA73
:103DF00002F2D24311464FF080420B4093640CE034
:103E00004FF080435B6AFA79012101FA02F2D24352
:103E100011464FF080420B405362002318460C3786
:103E2000BD465DF8047B704780B584B000AF0346A3
:103E3000FB714FF080439B6803F46063FB60FB7988
:103E4000062B00F2968001A252F823F0693E001082
:103E5000733F00103D3F00109F3E0010C93E001010
:103E6000033F00103D3F00104FF080439B684FF030
:103E7000804243F4802393604FF0806000F0DAF8D2
:103E80000346002B02D06FF00903CFE04FF08043D0
:103E90009B684FF0804223F4606393606CE04FF0C6
:103EA000005000F0C7F80346002B02D06FF0090362
:103EB000BCE04FF080439B6823F460634FF0804286
:103EC00043F4C063936057E04FF080439B684FF02A
:103ED000804243F4002393604FF0006000F0AAF8A2
:103EE0000346002B02D06FF009039FE04FF08043A0
:103EF0009B6823F460634FF0804243F40063936057
:103F00003AE04FF080439B684FF0804243F48013C7
:103F100093604FF0805000F08DF80346002B02D0E4
:103F20006FF0090382E04FF080439B6823F46063E5
:103F30004FF0804243F4206393601DE04FF08043D4
:103F40009B684FF0804243F4003393604FF0007061
:103F500000F070F80346002B02D06FF0090365E013
:103F60004FF080439B684FF0804223F4606393607E
:103F700002E06FF0020359E04FF4005000F05AF8ED
:103F80000346002B0ED04FF080439B6823F4606201
:103F9000FB6803F460634FF0804113438B606FF064
:103FA000090343E0FB79062B3DD801A252F823F028
:103FB000CD3F00102740001015400010DF3F0010DB
:103FC000F13F001003400010154000104FF08043F7
:103FD0009B684FF0804223F4D013936023E04FF0AE
:103FE00080439B684FF0804223F4F01393601AE003
:103FF0004FF080439B684FF0804223F4B0139360EE
:1040000011E04FF080439B684FF0804223F460231F
:10401000936008E04FF080439B684FF0804223F4A8
:10402000E013936000BFFCF733F900231846103704
:10403000BD4680BD80B582B000AF786000214FF4EE
:104040007A70FFF751FD4FF080439A687B68134008
:10405000002B03D0FFF7ACFD002307E0FFF770FD56
:10406000034613F1060FEED06FF009031846083728
:10407000BD4680BD80B483B000AF0346FB71FB79C1
:104080001F2B0FD9FB79203BFB71FB7901229A4052
:104090004FF080435A6400BF4FF080435B6C002BAD
:1040A000FAD10BE0FB7901229A404FF080435A602D
:1040B00000BF4FF080435B68002BFAD10023184605
:1040C0000C37BD465DF8047B704780B584B000AF07
:1040D0003B460D21184600F01DF83B789E2B94BFFF
:1040E00001230023DAB23B7803F00F03092BCCBF86
:1040F00001230023DBB21343DBB2002B04D04FF0CB
:1041000080431B6DDBB200E03B7818461037BD469C
:1041100080BD000080B588B000AF786039603B6832
:104120000D2B02D06FF0020386E07B68002B02D1DA
:104130004FF0FF3380E04FF08450FCF7E5FA4FF08A
:1041400084531B68BB603E4B1B68FB603D4B1B6888
:104150003B613D4B1B687B613C4B1B68BB613C4B2F
:104160001B68FB614FF08450FCF7DEFABB68DB0B89
:10417000DAB27B681A70BB68DA0D7B680133D2B2A1
:104180001A70BB68DA0F7B680233D2B21A707B6890
:1041900002331978FB68DBB25B00DAB27B6802336A
:1041A0000A43D2B21A70FB68DA097B680333D2B2D1
:1041B0001A70FB68DA0B7B680433D2B21A70FB68A2
:1041C000DA0D7B680533D2B21A703B69DA0B7B6873
:1041D0000633D2B21A703B69DA0D7B680733D2B26C
:1041E0001A703B69DA0F7B680833D2B21A707B68A9
:1041F000083319787B69DBB25B00DAB27B6808337D
:104200000A43D2B21A707B69DA097B680933D2B2E9
:104210001A707B69DA0B7B680A33D2B21A707B6939
:10422000DA0D7B680B33D2B21A70BB69DA0B7B688C
:104230000C33D2B21A70002318462037BD4680BD19
:1042400004008010080080100C0080101000801006
:104250001400801080B582B000AF7860786800F0FC
:1042600004F800BF0837BD4680BD80B483B000AFFE
:1042700078607B680122DA6000BF0C37BD465DF8CC
:10428000047B704780B582B000AF786000BF78686B
:1042900000F018FA0346002BF9D0786800F0C6F950
:1042A000034618460837BD4680BD80B582B000AFD2
:1042B00078600B46FB7000BF786800F035FA034663
:1042C000002BF9D0FB781946786800F0BBF903465B
:1042D00018460837BD4680BD80B584B000AF786011
:1042E0003960786800F084F8F860FB68002B01D032
:1042F000FB6869E07B68364A93420ED07B68354A9A
:10430000934208D07B68344A934201D1022305E0EE
:104310004FF0FF3302E0012300E00023022B14D012
:10432000022B19DC002B02D0012B07D014E02B4804
:10433000FCF72EFB0920FFF74AFD10E02848FCF7A8
:1043400027FB0A20FFF743FD09E02648FCF720FB86
:104350002120FFF73CFD02E06FF0020334E07B68B0
:104360001B4A93420ED07B681A4A934208D07B685E
:10437000194A934201D1022305E04FF0FF3302E0D6
:10438000012300E00023184A002142F823107B6833
:104390000F4A93420ED07B680E4A934208D07B6846
:1043A0000D4A934201D1022305E04FF0FF3302E0B2
:1043B000012300E000230D4A002142F82310396850
:1043C000786800F0A9FA034618461037BD4680BD4C
:1043D000002004400030044000400440E0A40310EA
:1043E000F8A4031010A50310841D0020901D0020C8
:1043F00080B582B000AF78607B681C4A93420ED0D3
:104400007B681B4A934208D07B681A4A934201D1C9
:10441000022305E04FF0FF3302E0012300E0002318
:10442000022B14D0022B19DC002B02D0012B07D059
:1044300014E00B20FFF71EFE0920FFF79DFC10E0A3
:104440000C20FFF717FE0A20FFF796FC09E01C205E
:10445000FFF710FE2120FFF78FFC02E06FF0020350
:1044600000E0002318460837BD4680BD0020044008
:10447000003004400040044080B582B000AF786056
:1044800039603968786800F0DDFA03461846083765
:10449000BD4680BD80B582B000AF7860786800F01E
:1044A000A3FB034618460837BD4680BD80B582B0E1
:1044B00000AF786039603968786800F021FC034605
:1044C00018460837BD4680BD80B582B000AF786021
:1044D0000B46FB70FB781946786800F034FC034605
:1044E00018460837BD4680BD80B582B000AF786001
:1044F0000B46FB70FB781946786800F049FC0346D0
:1045000018460837BD4680BD80B584B000AFF8605E
:104510000B467A60FB72FB681A4A93420ED0FB6826
:10452000194A934208D0FB68184A934201D10223EA
:1045300005E04FF0FF3302E0012300E00023022BEF
:104540000ED0022B10DC002B02D0012B04D00BE08C
:104550000F48FCF71DFA0AE00E48FCF719FA06E0CE
:104560000D48FCF715FA02E06FF0020306E0FB7A53
:104570007A681946F86800F0E5FC034618461037DB
:10458000BD4680BD0020044000300440004004408F
:10459000ECA4031004A503101CA5031080B582B081
:1045A00000AF78607B680B4A93420AD07B680A4A66
:1045B000934206D07B68094A934202D06FF002030F
:1045C00003E07868FFF75EFE034618460837BD46ED
:1045D00080BD00BF00200440003004400040044083
:1045E00080B582B000AF78600B46FB707B680C4AE8
:1045F00093420AD07B680B4A934206D07B680A4AF2
:10460000934202D06FF0020305E0FB781946786808
:10461000FFF74BFE034618460837BD4680BD00BF76
:1046200000200440003004400040044080B582B0C7
:1046300000AF7860786800F0D7FC0346184608376A
:10464000BD4680BD80B582B000AF78600B46FB7080
:10465000FB781946786800F0DCFC034618460837FA
:10466000BD4680BD80B584B000AFF860B9607A60A7
:104670007A68B968F86800F0E5FC03461846103718
:10468000BD4680BD80B584B000AFF860B9607A6087
:104690007A68B968F86800F000FD034618461037DC
:1046A000BD4680BD80B584B000AFF860B9607A6067
:1046B0007A68B968F86800F01AFD034618461037A2
:1046C000BD4680BD80B582B000AF78607B680B4A84
:1046D00093420AD07B680A4A934206D07B68094A13
:1046E000934202D06FF0020303E0786800F025FDEA
:1046F000034618460837BD4680BD00BF0020044071
:10470000003004400040044080B584B000AFF86041
:10471000B9607A607A68B968F86800F01DFD0346F0
:1047200018461037BD4680BD80B582B000AF7860B6
:104730007B680B4A93420AD07B680A4A934206D0B0
:104740007B68094A934202D06FF0020303E0786865
:1047500000F028FD034618460837BD4680BD00BF5F
:1047600000200440003004400040044080B582B086
:1047700000AF7860786800F028FD00BF0837BD46BC
:1047800080BD80B582B000AF7860396039687868E4
:1047900000F033FD034618460837BD4680BD80B59E
:1047A00082B000AF786039603968786800F044FD05
:1047B000034618460837BD4680BD000080B582B06C
:1047C00000AF78607B680B4A93420AD07B680A4A44
:1047D000934206D07B68094A934202D06FF00203ED
:1047E00003E0786800F04AFD034618460837BD46E6
:1047F00080BD00BF00200440003004400040044061
:1048000080B582B000AF786039603968786800F0B0
:1048100041FD00BF0837BD4680BD80B582B000AF06
:10482000786039603968786800F043FD00BF083768
:10483000BD4680BD80B582B000AF78603960396810
:10484000786800F048FD00BF0837BD4680BD000015
:1048500080B582B000AF78607B680B4A93420AD083
:104860007B680A4A934206D07B68094A934202D089
:104870006FF0020303E0786800F040FD034618463D
:104880000837BD4680BD00BF002004400030044012
:104890000040044080B582B000AF7860786800F0D6
:1048A00039FD034618460837BD4680BD80B582B045
:1048B00000AF786039603968786800F06BFE0346B5
:1048C00018460837BD4680BD80B582B000AF78601D
:1048D00039603968786800F01FFE034618460837CB
:1048E000BD4680BD80B582B000AF78603960396860
:1048F000786800F0D3FD034618460837BD4680BDF2
:1049000080B582B000AF7860786800F085FE00BFA7
:104910000837BD4680BD000080B584B000AF786028
:10492000396001217868FFF72CFFF860FB68002BE5
:1049300001D0FB687AE002217868FFF730FFF86069
:10494000FB68002B01D0FB6870E008217868FFF756
:10495000ADFDF860FB68002B01D0FB6866E000212C
:104960007868FFF7C1FDF860FB68002B01D0FB6899
:104970005CE000217868FFF7A7FDF860FB68002B7A
:1049800001D0FB6852E07B681B6843F001027B6842
:104990001A6039687868FFF76FFD7B68254A934293
:1049A0000ED07B68244A934208D07B68234A934206
:1049B00001D1022305E04FF0FF3302E0012300E0C4
:1049C0000023BB601E49BA6813469B0013449B003A
:1049D0000B440C334FF0FF321A601949BA68134682
:1049E0009B0013449B000B4408334FF0FF321A60C6
:1049F0001349BA6813469B0013449B000B440022E2
:104A00001A600F49BA6813469B0013449B000B447D
:104A1000043300221A600A49BA6813469B00134403
:104A20009B000B44103300221A70002318461037E5
:104A3000BD4680BD002004400030044000400440DA
:104A4000B41D002080B586B000AF786039607B6807
:104A50001B6803F40043002B03D04FF4E1037B6198
:104A600003E05F4B1B685B087B617B6907EE903A54
:104A7000F8EEE76A3B6807EE903AB8EE677AC6EE62
:104A8000877AC7ED027A08233B6116E03B6907EE9F
:104A9000903AB8EEE77AD7ED026AC6EE877AB7EEBB
:104AA000007AF4EEC77AF1EE10FA03D53B695B1099
:104AB0003B6105E03B695B003B613B69802BE5DDC9
:104AC0003B69802B01DD80233B613B69072B02DCC6
:104AD0006FF0020380E03B6907EE903AB8EEE77AA8
:104AE000D7ED026AC6EE877AC7ED027AD7ED027A71
:104AF000FDEEE77AF8EEE77A97ED027A77EE677ADD
:104B00009FED387A67EE877AFDEEE77A17EE903AF6
:104B1000FB60FB68032B03DDFB68033BFB6002E0EB
:104B2000FB680333FB603B69802B21D03B69802B02
:104B300021DC3B69402B18D03B69402B1BDC3B69D7
:104B4000202B0FD03B69202B15DC3B69082B03D0B1
:104B50003B69102B03D00EE004233B610EE00323DE
:104B60003B610BE002233B6108E001233B6105E070
:104B700000233B6102E06FF007032DE03B691B045B
:104B80003B617B685B6923F440323B6903F440334B
:104B90001A437B685A617B685B6923F47F6323F067
:104BA0000F03D7ED027AFDEEE77A17EE902AC2F3F3
:104BB0000B021A437B685A617B689B6923F47F630D
:104BC00023F00F03FA68C2F30B021A437B689A6161
:104BD0007868FFF75FFC034618461837BD4680BD6E
:104BE000201400200000004380B487B000AF78603C
:104BF00000237B614FF00003FB604FF000033B613B
:104C00007B681B6803F40043002B03D04FF4E103DF
:104C10007B6103E0384B1B685B087B617B685B69E9
:104C2000C3F30B0307EE903AF8EE677A97ED037A39
:104C300077EE277AC7ED037A7B689B69C3F30B0392
:104C400007EE903AF8EE677AC7ED047AD7ED047A6A
:104C5000B0EE087AF4EEC77AF1EE10FA11DDD7ED76
:104C6000047AB1EE087AF4EEC77AF1EE10FA08D8B9
:104C7000D7ED047AB0EE087A77EEC77AC7ED047AFA
:104C800007E0D7ED047AB0EE087A77EE877AC7EDC1
:104C9000047A97ED047ADFED196AC7EE267A97ED6C
:104CA000037A77EE277AC7ED037A7B685B6903F4B2
:104CB0004033C3F10703012202FA03F307EE903AEF
:104CC000F8EEE77A97ED037A67EE277AC7ED037A75
:104CD0007B6907EE903AF8EEE76A97ED037AC6EE45
:104CE000877AFDEEE77A17EE903A18461C37BD46F4
:104CF0005DF8047B704700BF2014002000000043D3
:104D000080B483B000AF786039603B68042B02DD6B
:104D10003B68082B02DD6FF002030EE03B68053BA9
:104D20001B023B607B681B6823F440723B6803F402
:104D300040731A437B681A60002318460C37BD463F
:104D40005DF8047B704780B483B000AF78600B4699
:104D5000FB70FB78002B02D0012B07D00DE07B68A5
:104D60001B6823F480627B681A6009E07B681B681B
:104D700043F480627B681A6002E06FF0020300E097
:104D8000002318460C37BD465DF8047B70470000D1
:104D900080B483B000AF78600B46FB70FB780C2BBF
:104DA00000F2C58001A252F823F000BFE14D0010CF
:104DB000EF4D00103B4E00108F4E0010E34E0010E0
:104DC000EF4D0010154E00103B4E0010654E0010C8
:104DD0008F4E0010B94E0010E34E0010094F001026
:104DE0007B681B6823F002027B681A60A2E07B6884
:104DF0001B6843F002027B681A607B681B6823F023
:104E00000C027B681A607B681B6823F010027B68C9
:104E10001A608FE07B681B6843F002027B681A60AF
:104E20007B681B6823F00C027B681A607B681B6838
:104E300043F010027B681A607CE07B681B6843F0DB
:104E400002027B681A607B681B6823F00C0343F046
:104E500004027B681A607B681B6823F010027B6881
:104E60001A6067E07B681B6843F002027B681A6087
:104E70007B681B6823F00C0343F004027B681A6014
:104E80007B681B6843F010027B681A6052E07B6805
:104E90001B6843F002027B681A607B681B6823F082
:104EA0000C0343F008027B681A607B681B6823F0E0
:104EB00010027B681A603DE07B681B6843F00202C9
:104EC0007B681A607B681B6823F00C0343F00802C0
:104ED0007B681A607B681B6843F010027B681A606D
:104EE00028E07B681B6843F002027B681A607B68DD
:104EF0001B6843F00C027B681A607B681B6823F018
:104F000010027B681A6015E07B681B6843F00202A0
:104F10007B681A607B681B6843F00C027B681A6030
:104F20007B681B6843F010027B681A6002E06FF038
:104F3000020300E0002318460C37BD465DF8047BF1
:104F4000704700BF80B485B000AFF8600B467A6050
:104F5000FB72FB7A022B1AD0022B25DC002B02D02D
:104F6000012B07D020E0FB681B6823F40062FB687C
:104F70001A601CE0FB681B6843F40062FB681A605F
:104F8000FB681B6823F48052FB681A600FE0FB6823
:104F90001B6843F40062FB681A60FB681B6843F4FB
:104FA0008052FB681A6002E06FF0020316E07B6833
:104FB000002B02DD7B68202B02DD6FF002030DE089
:104FC0007B681B047B60FB685B6823F47C127B6856
:104FD00003F47C131A43FB685A6000231846143705
:104FE000BD465DF8047B704780B483B000AF786045
:104FF0007B689B6803F01003002B02D06FF00C035A
:1050000001E07B68DB6918460C37BD465DF8047B20
:10501000704780B483B000AF78600B46FB707B684C
:105020009B6803F08003002B02D06FF00B0303E0BA
:10503000FA787B68DA61002318460C37BD465DF8C4
:10504000047B704780B586B000AFF860B9607A60C5
:1050500000237B6114E0F868FFF7A0FA38613B6930
:10506000002B04DA7B687A691A603B6911E07B697E
:10507000BA6813443A69D2B21A707B6901337B6112
:105080007B681B687A699A42E5DB7B687A691A60FB
:10509000002318461837BD4680BD80B586B000AFE6
:1050A000F860B9607A6000237B6113E07B69BA68BD
:1050B00013441B781946F868FFF792FA38613B6988
:1050C000002B04D07B687A691A603B690BE07B692E
:1050D00001337B617B681B687A699A42E6DB7B68F7
:1050E0007A691A60002318461837BD4680BD80B41F
:1050F00087B000AFF860B9607A6000237B610FE091
:10510000FB689B6803F01003002B0ED1FB68D96984
:10511000BA687B691344CAB21A707B6901337B6138
:105120007A697B689A42EBD300E000BF7B6918463E
:105130001C37BD465DF8047B704780B483B000AF78
:1051400078607B689B681B0A03F03F0318460C37A6
:10515000BD465DF8047B704780B487B000AFF8604F
:10516000B9607A6000237B610FE0FB689B6803F005
:105170008003002B0ED1BA687B6913441B781A4652
:10518000FB68DA617B6901337B617A697B689A42EB
:10519000EBD300E000BF7B6918461C37BD465DF8C5
:1051A000047B704780B485B000AF78607B689B68F3
:1051B0001B0C03F03F03FB60FB68C3F120031846A0
:1051C0001437BD465DF8047B704780B483B000AFF0
:1051D00078607B681B6843F040027B681A6000BF00
:1051E0007B681B6803F04003002BF9D100231846AD
:1051F0000C37BD465DF8047B704780B483B000AFC8
:10520000786039603B68002B02D03B68202B02D9C4
:105210006FF002030AE07B685B6823F03F023B68A3
:1052200003F03F031A437B685A60002318460C378B
:10523000BD465DF8047B704780B483B000AF7860F2
:1052400039603B68002B02D03B68202B02D96FF0FD
:1052500002030DE03B681B023B607B685B6823F444
:105260007C523B6803F47C531A437B685A600023EA
:1052700018460C37BD465DF8047B704780B483B098
:1052800000AF78607B681B6918460C37BD465DF837
:10529000047B704780B483B000AF786039607B686E
:1052A0003A681A61002318460C37BD465DF8047B46
:1052B000704780B483B000AF786039607B68DA688B
:1052C0003B681A437B68DA60002318460C37BD46FA
:1052D0005DF8047B704780B483B000AF78603960BC
:1052E0007B68DA683B68DB431A407B68DA6000233E
:1052F00018460C37BD465DF8047B704780B483B018
:1053000000AF78607B689B6818460C37BD465DF837
:10531000047B704780B586B000AF78607B681B68FF
:10532000594A934210D07B681B68584A934209D06F
:105330007B681B68564A934201D1022305E04FF077
:10534000FF3302E0012300E000237B617B68DB6820
:10535000002B3ED04F4A7B6952F82330002B02D0FD
:105360006FF006038CE07B685B68002B02D16FF066
:10537000020385E07B6800225A6146497B697A68AE
:1053800041F823207B681B6840211846FFF745FA47
:105390007B681B681846FFF7C7F938617B68DA68D5
:1053A0007B685B69D31A3A69934228BF13463B6115
:1053B0007B6818687B685A687B685B6913443A6944
:1053C0001946FFF7A1F902467B685B691A447B68BE
:1053D0005A617B681B69002B51D02F4A7B6952F8B8
:1053E0002330002B02D06FF0060349E07B689B68F6
:1053F000002B09D17B681B684FF0FF311846FFF77F
:1054000019FA6FF002033BE07B6800229A6122499F
:105410007B697A6841F823207B681B680B2118465A
:10542000FFF7FBF97B681B6810211846FFF7F5F9B9
:105430007B681B681846FFF745F9F8607B681A69B6
:105440007B689B69D31AFA68934228BF1346FB60B6
:105450007B6818687B689A687B689B691344FA6864
:105460001946FFF71FF902467B689B691A447B685F
:105470009A617B681B6810211846FFF7C1F9002369
:1054800018461837BD4680BD002004400030044057
:10549000004004409C1D0020A81D002080B584B061
:1054A00000AF786039607B68174A93420ED07B6802
:1054B000164A934208D07B68154A934201D10223D1
:1054C00005E04FF0FF3302E0012300E00023FB6022
:1054D000104AFB6852F82330002B02D16FF006030C
:1054E0000EE00C4AFB6852F82330BB60BB68DB69F6
:1054F000002B04D0BB68DB693968B8689847002383
:1055000018461037BD4680BD0020044000300440DE
:1055100000400440A81D002080B584B000AF786032
:1055200039607B68174A93420ED07B68164A9342D3
:1055300008D07B68154A934201D1022305E04FF061
:10554000FF3302E0012300E00023FB60104AFB6808
:1055500052F82330002B02D16FF006030EE00C4A04
:10556000FB6852F82330BB60BB68DB69002B04D0BA
:10557000BB68DB693968B86898470023184610375C
:10558000BD4680BD0020044000300440004004407F
:105590009C1D002080B584B000AF786039607B68C6
:1055A000184A93420ED07B68174A934208D07B6812
:1055B000164A934201D1022305E04FF0FF3302E087
:1055C000012300E00023BB6039687868FFF77CF9AD
:1055D000F860FB68002B01D0FB680FE00C4ABB6849
:1055E00052F823200B49BB6851F823309A4204D06B
:1055F00039687868FFF776F9F860FB681846103765
:10560000BD4680BD002004400030044000400440FE
:105610009C1D0020A81D002080B588B000AF7860D8
:105620007B68904A93420ED07B688F4A934208D0A1
:105630007B688E4A934201D1022305E04FF0FF338D
:1056400002E0012300E00023FB617868FFF7B6F871
:10565000B8617B68DA68BB69134003F00B03002B69
:1056600015D05B217868FFF7E5F86FF008017868DE
:10567000FFF71CF97E4AFB69002142F823107D4A9E
:10568000FB69002142F823106FF00303E6E0794A3A
:10569000FB6952F823307B61BB6903F04003002BA8
:1056A0002DD07B69002B2AD07B69DB68002B26D0AC
:1056B0007B691B681846FFF737F838617B69DA6841
:1056C0007B695B69D31A3A69934228BF13463B61F1
:1056D0007B6918687B695A687B695B6913443A691E
:1056E0001946FFF711F802467B695B691A447B692A
:1056F0005A617B691B6840211846FFF781F85C4AB4
:10570000FB6952F823307B61BB6903F01003002B67
:105710002DD07B69002B2AD07B691B69002B26D0FA
:105720007B691B681846FEF7CDFFF8607B691A6934
:105730007B699B69D31AFA68934228BF1346FB60C2
:105740007B6918687B699A687B699B691344FA686E
:105750001946FEF7A7FF02467B699B691A447B69DD
:105760009A617B691B6810211846FFF749F8404A87
:10577000FB6952F823203F49FB6951F823309A42D4
:1057800027D17B69002B22D07B699A697B691B69D1
:105790009A421CD17B695A697B69DB689A4216D1AF
:1057A0005B217868FFF746F8314AFB69002142F82F
:1057B0002310304AFB69002142F823107B69DB6922
:1057C000002B04D07B69DB690021786998470023AE
:1057D00044E0284AFB6952F823307B617B69002B47
:1057E00019D07B695A697B69DB689A4213D14021E1
:1057F0007868FFF71FF81F4AFB69002142F8231061
:105800007B69DB69002B04D07B69DB690021786947
:105810009847002322E0164AFB6952F823307B6147
:105820007B69002B19D07B699A697B691B699A4255
:1058300013D11B217868FEF7FDFF0D4AFB6900219B
:1058400042F823107B69DB69002B04D07B69DB699C
:10585000002178699847002300E00023184620378C
:10586000BD4680BD0020044000300440004004409C
:10587000A81D00209C1D002080B588B000AF786076
:105880007B68FB61FB695B689B6807F1100211464E
:1058900018461CF0F4FDB861BB69002B08D0FB6909
:1058A0001A68FB695B681946104600F0CAFA3FE0C7
:1058B000FB695B689B6807F11402114618461CF0EF
:1058C00057FDFB695B689B6807F10C02114618469F
:1058D0001CF053FC3B691B69002B06D03B691B691C
:1058E000386979693A6952699847FB68002B0ED18B
:1058F000FB691B681A69FB695B68DB68194610461F
:1059000000F005FEFB695B6801221A7110E0FB697B
:105910001B68DB681B69FA69526879691046984709
:10592000FB691A68FB695B681946104600F04DFA7E
:105930002037BD4680BD80B586B000AF7860396045
:105940003B68002B03D03B689B68002B02D16FF0B3
:1059500015037FE03B689B681B68002B02D16FF04A
:10596000570377E007F1080318461CF05BFFBB689C
:1059700018461CF061FF3B689B681B6839687868B3
:10598000984778617B69002B5ED17B681B681C336C
:1059900018461CF047FF7B681B683A689268DA601B
:1059A00000233B6122E07B681B6899683A691346D3
:1059B000DB009B1ADB000B44083300220121184650
:1059C0001CF06CFB78617B69002B1FD17B681B6826
:1059D00099683A691346DB009B1ADB000B443033AD
:1059E00018461CF01FFF3B6901333B613B685B6855
:1059F0003A699A42D7D37B681B689A6901329A61E7
:105A0000BB6818461CF022FF002323E000BF0023E0
:105A1000FB600FE07B681B6899683A691346DB00FE
:105A20009B1ADB000B449B6818461CF07BFBFB6851
:105A30000133FB60FA683B699A42EBD37B681B68D1
:105A4000184600F00BF800E000BFBB6818461CF0D9
:105A5000FDFE7B6918461837BD4680BD90B585B000
:105A600000AF78607B68002B02D16FF0150365E012
:105A70007B689B69002B01D100235FE00023FB6062
:105A800041E07B689B689B6818461CF04BFBB86044
:105A9000BB68002B01D0BB6850E07B689968FA684E
:105AA0001346DB009B1ADB000B441B6B18461CF0F3
:105AB000D7FE7B681B69002B22D07B689968FA6847
:105AC0001346DB009B1ADB000B44DB69002B17D06D
:105AD0007B6818697B689968FA681346DB009B1A33
